{
  "_format": "hh-sol-artifact-1",
  "contractName": "Versura",
  "sourceName": "src/contracts/Versura.sol",
  "abi": [
    {
      "inputs": [],
      "stateMutability": "nonpayable",
      "type": "constructor"
    },
    {
      "anonymous": false,
      "inputs": [
        {
          "indexed": false,
          "internalType": "uint256",
          "name": "id",
          "type": "uint256"
        },
        {
          "indexed": false,
          "internalType": "string",
          "name": "actionType",
          "type": "string"
        },
        {
          "indexed": true,
          "internalType": "address",
          "name": "executor",
          "type": "address"
        },
        {
          "indexed": false,
          "internalType": "uint256",
          "name": "timestamp",
          "type": "uint256"
        }
      ],
      "name": "Action",
      "type": "event"
    },
    {
      "inputs": [
        {
          "internalType": "address",
          "name": "connectedAddress",
          "type": "address"
        }
      ],
      "name": "MyProjects",
      "outputs": [
        {
          "components": [
            {
              "internalType": "uint256",
              "name": "id",
              "type": "uint256"
            },
            {
              "internalType": "address",
              "name": "owner",
              "type": "address"
            },
            {
              "internalType": "string",
              "name": "title",
              "type": "string"
            },
            {
              "internalType": "string",
              "name": "description",
              "type": "string"
            },
            {
              "internalType": "string",
              "name": "imageURL",
              "type": "string"
            },
            {
              "internalType": "uint256",
              "name": "cost",
              "type": "uint256"
            },
            {
              "internalType": "uint256",
              "name": "raised",
              "type": "uint256"
            },
            {
              "internalType": "uint256",
              "name": "timestamp",
              "type": "uint256"
            },
            {
              "internalType": "uint256",
              "name": "expiresAt",
              "type": "uint256"
            },
            {
              "internalType": "uint256",
              "name": "backers",
              "type": "uint256"
            },
            {
              "internalType": "enum Versura.statusEnum",
              "name": "status",
              "type": "uint8"
            }
          ],
          "internalType": "struct Versura.projectStruct[]",
          "name": "",
          "type": "tuple[]"
        }
      ],
      "stateMutability": "view",
      "type": "function"
    },
    {
      "inputs": [
        {
          "internalType": "uint256",
          "name": "id",
          "type": "uint256"
        }
      ],
      "name": "backProject",
      "outputs": [
        {
          "internalType": "bool",
          "name": "",
          "type": "bool"
        }
      ],
      "stateMutability": "payable",
      "type": "function"
    },
    {
      "inputs": [],
      "name": "balance",
      "outputs": [
        {
          "internalType": "uint256",
          "name": "",
          "type": "uint256"
        }
      ],
      "stateMutability": "view",
      "type": "function"
    },
    {
      "inputs": [
        {
          "internalType": "uint256",
          "name": "_taxPct",
          "type": "uint256"
        }
      ],
      "name": "changeTax",
      "outputs": [],
      "stateMutability": "nonpayable",
      "type": "function"
    },
    {
      "inputs": [
        {
          "internalType": "string",
          "name": "title",
          "type": "string"
        },
        {
          "internalType": "string",
          "name": "description",
          "type": "string"
        },
        {
          "internalType": "string",
          "name": "imageURL",
          "type": "string"
        },
        {
          "internalType": "uint256",
          "name": "cost",
          "type": "uint256"
        },
        {
          "internalType": "uint256",
          "name": "expiresAt",
          "type": "uint256"
        }
      ],
      "name": "createProject",
      "outputs": [
        {
          "internalType": "bool",
          "name": "",
          "type": "bool"
        }
      ],
      "stateMutability": "nonpayable",
      "type": "function"
    },
    {
      "inputs": [
        {
          "internalType": "uint256",
          "name": "id",
          "type": "uint256"
        }
      ],
      "name": "deleteProject",
      "outputs": [
        {
          "internalType": "bool",
          "name": "",
          "type": "bool"
        }
      ],
      "stateMutability": "nonpayable",
      "type": "function"
    },
    {
      "inputs": [
        {
          "internalType": "uint256",
          "name": "id",
          "type": "uint256"
        }
      ],
      "name": "getBackers",
      "outputs": [
        {
          "components": [
            {
              "internalType": "address",
              "name": "owner",
              "type": "address"
            },
            {
              "internalType": "uint256",
              "name": "contribution",
              "type": "uint256"
            },
            {
              "internalType": "uint256",
              "name": "timestamp",
              "type": "uint256"
            },
            {
              "internalType": "bool",
              "name": "refunded",
              "type": "bool"
            }
          ],
          "internalType": "struct Versura.backerStruct[]",
          "name": "",
          "type": "tuple[]"
        }
      ],
      "stateMutability": "view",
      "type": "function"
    },
    {
      "inputs": [
        {
          "internalType": "uint256",
          "name": "id",
          "type": "uint256"
        }
      ],
      "name": "getProject",
      "outputs": [
        {
          "components": [
            {
              "internalType": "uint256",
              "name": "id",
              "type": "uint256"
            },
            {
              "internalType": "address",
              "name": "owner",
              "type": "address"
            },
            {
              "internalType": "string",
              "name": "title",
              "type": "string"
            },
            {
              "internalType": "string",
              "name": "description",
              "type": "string"
            },
            {
              "internalType": "string",
              "name": "imageURL",
              "type": "string"
            },
            {
              "internalType": "uint256",
              "name": "cost",
              "type": "uint256"
            },
            {
              "internalType": "uint256",
              "name": "raised",
              "type": "uint256"
            },
            {
              "internalType": "uint256",
              "name": "timestamp",
              "type": "uint256"
            },
            {
              "internalType": "uint256",
              "name": "expiresAt",
              "type": "uint256"
            },
            {
              "internalType": "uint256",
              "name": "backers",
              "type": "uint256"
            },
            {
              "internalType": "enum Versura.statusEnum",
              "name": "status",
              "type": "uint8"
            }
          ],
          "internalType": "struct Versura.projectStruct",
          "name": "",
          "type": "tuple"
        }
      ],
      "stateMutability": "view",
      "type": "function"
    },
    {
      "inputs": [],
      "name": "getProjects",
      "outputs": [
        {
          "components": [
            {
              "internalType": "uint256",
              "name": "id",
              "type": "uint256"
            },
            {
              "internalType": "address",
              "name": "owner",
              "type": "address"
            },
            {
              "internalType": "string",
              "name": "title",
              "type": "string"
            },
            {
              "internalType": "string",
              "name": "description",
              "type": "string"
            },
            {
              "internalType": "string",
              "name": "imageURL",
              "type": "string"
            },
            {
              "internalType": "uint256",
              "name": "cost",
              "type": "uint256"
            },
            {
              "internalType": "uint256",
              "name": "raised",
              "type": "uint256"
            },
            {
              "internalType": "uint256",
              "name": "timestamp",
              "type": "uint256"
            },
            {
              "internalType": "uint256",
              "name": "expiresAt",
              "type": "uint256"
            },
            {
              "internalType": "uint256",
              "name": "backers",
              "type": "uint256"
            },
            {
              "internalType": "enum Versura.statusEnum",
              "name": "status",
              "type": "uint8"
            }
          ],
          "internalType": "struct Versura.projectStruct[]",
          "name": "",
          "type": "tuple[]"
        }
      ],
      "stateMutability": "view",
      "type": "function"
    },
    {
      "inputs": [],
      "name": "owner",
      "outputs": [
        {
          "internalType": "address",
          "name": "",
          "type": "address"
        }
      ],
      "stateMutability": "view",
      "type": "function"
    },
    {
      "inputs": [
        {
          "internalType": "uint256",
          "name": "id",
          "type": "uint256"
        }
      ],
      "name": "payOutProject",
      "outputs": [
        {
          "internalType": "bool",
          "name": "",
          "type": "bool"
        }
      ],
      "stateMutability": "nonpayable",
      "type": "function"
    },
    {
      "inputs": [],
      "name": "projectCount",
      "outputs": [
        {
          "internalType": "uint256",
          "name": "",
          "type": "uint256"
        }
      ],
      "stateMutability": "view",
      "type": "function"
    },
    {
      "inputs": [
        {
          "internalType": "uint256",
          "name": "",
          "type": "uint256"
        }
      ],
      "name": "projectExist",
      "outputs": [
        {
          "internalType": "bool",
          "name": "",
          "type": "bool"
        }
      ],
      "stateMutability": "view",
      "type": "function"
    },
    {
      "inputs": [],
      "name": "projectTax",
      "outputs": [
        {
          "internalType": "uint256",
          "name": "",
          "type": "uint256"
        }
      ],
      "stateMutability": "view",
      "type": "function"
    },
    {
      "inputs": [
        {
          "internalType": "uint256",
          "name": "id",
          "type": "uint256"
        }
      ],
      "name": "requestRefund",
      "outputs": [
        {
          "internalType": "bool",
          "name": "",
          "type": "bool"
        }
      ],
      "stateMutability": "nonpayable",
      "type": "function"
    },
    {
      "inputs": [],
      "name": "stats",
      "outputs": [
        {
          "internalType": "uint256",
          "name": "totalProjects",
          "type": "uint256"
        },
        {
          "internalType": "uint256",
          "name": "totalBacking",
          "type": "uint256"
        },
        {
          "internalType": "uint256",
          "name": "totalDonations",
          "type": "uint256"
        }
      ],
      "stateMutability": "view",
      "type": "function"
    },
    {
      "inputs": [
        {
          "internalType": "uint256",
          "name": "id",
          "type": "uint256"
        },
        {
          "internalType": "string",
          "name": "title",
          "type": "string"
        },
        {
          "internalType": "string",
          "name": "description",
          "type": "string"
        },
        {
          "internalType": "string",
          "name": "imageURL",
          "type": "string"
        },
        {
          "internalType": "uint256",
          "name": "expiresAt",
          "type": "uint256"
        }
      ],
      "name": "updateProject",
      "outputs": [
        {
          "internalType": "bool",
          "name": "",
          "type": "bool"
        }
      ],
      "stateMutability": "nonpayable",
      "type": "function"
    }
  ],
  "bytecode": "0x608060405234801561001057600080fd5b50600080546001600160a01b031916331790556124ff806100326000396000f3fe6080604052600436106100fe5760003560e01c80639f39a19411610095578063c9168b7211610064578063c9168b72146102bc578063d24cd3ec146102e9578063d80528ae146102ff578063dcc6012814610339578063f0f3f2c81461034e57600080fd5b80639f39a19414610253578063a4b2409e14610266578063b531dcba14610286578063b69ef8a8146102a657600080fd5b80634cd0cb28116100d15780634cd0cb28146101ab5780638593054b146101cb5780638da5cb5b146101fb5780639a3fa8c71461023357600080fd5b8063056c29ee146101035780630f6b01991461013857806336fbad26146101655780633e45c8af14610189575b600080fd5b34801561010f57600080fd5b5061012361011e366004611fdf565b61037b565b60405190151581526020015b60405180910390f35b34801561014457600080fd5b50610158610153366004612079565b6107e8565b60405161012f91906121f3565b34801561017157600080fd5b5061017b60025481565b60405190815260200161012f565b34801561019557600080fd5b506101a96101a4366004612255565b610a99565b005b3480156101b757600080fd5b506101236101c6366004612255565b610aee565b3480156101d757600080fd5b506101236101e6366004612255565b600a6020526000908152604090205460ff1681565b34801561020757600080fd5b5060005461021b906001600160a01b031681565b6040516001600160a01b03909116815260200161012f565b34801561023f57600080fd5b5061012361024e36600461226e565b610c6a565b610123610261366004612255565b610ee1565b34801561027257600080fd5b50610123610281366004612255565b6112ee565b34801561029257600080fd5b506101236102a1366004612255565b6113e5565b3480156102b257600080fd5b5061017b60035481565b3480156102c857600080fd5b506102dc6102d7366004612255565b6114d4565b60405161012f9190612308565b3480156102f557600080fd5b5061017b60015481565b34801561030b57600080fd5b5060045460055460065461031e92919083565b6040805193845260208401929092529082015260600161012f565b34801561034557600080fd5b5061015861156b565b34801561035a57600080fd5b5061036e610369366004612255565b611806565b60405161012f9190612377565b6000808651116103ca5760405162461bcd60e51b81526020600482015260156024820152745469746c652063616e6e6f7420626520656d70747960581b60448201526064015b60405180910390fd5b600085511161041b5760405162461bcd60e51b815260206004820152601b60248201527f4465736372697074696f6e2063616e6e6f7420626520656d707479000000000060448201526064016103c1565b60008451116104675760405162461bcd60e51b8152602060048201526018602482015277496d61676555524c2063616e6e6f7420626520656d70747960401b60448201526064016103c1565b600083116104ad5760405162461bcd60e51b8152602060048201526013602482015272436f73742063616e6e6f74206265207a65726f60681b60448201526064016103c1565b6104b5611e30565b600254815233602080830191825260408301898152606084018990526080840188905260a084018790524260e085015261010084018690526007805460018101825560009190915284517fa66cc928b5edb82af9bd49922954155ab7b0942694bea4ce44661d9a8736c688600b90920291820190815593517fa66cc928b5edb82af9bd49922954155ab7b0942694bea4ce44661d9a8736c689820180546001600160a01b0319166001600160a01b03909216919091179055905180518594936105a2937fa66cc928b5edb82af9bd49922954155ab7b0942694bea4ce44661d9a8736c68a01920190611ea3565b50606082015180516105be916003840191602090910190611ea3565b50608082015180516105da916004840191602090910190611ea3565b5060a0820151600582015560c0820151600682015560e0820151600782015561010082015160088201556101208201516009820155610140820151600a8201805460ff19166001836004811115610633576106336120f6565b021790555050600280546000908152600a602090815260408083208054600160ff1990911681179091553384526008835281842080548083018255908552938390208751600b909502019384558683015190840180546001600160a01b0319166001600160a01b03909216919091179055850151805186955092936106c093908501929190910190611ea3565b50606082015180516106dc916003840191602090910190611ea3565b50608082015180516106f8916004840191602090910190611ea3565b5060a0820151600582015560c0820151600682015560e0820151600782015561010082015160088201556101208201516009820155610140820151600a8201805460ff19166001836004811115610751576107516120f6565b0217905550505060016004600001600082825461076e91906123a0565b909155505060028054906000610783836123b8565b909155505060025460408051918252606060208301819052600f908301526e141493d29150d50810d49150551151608a1b6080830152429082015233906000805160206124aa8339815191529060a00160405180910390a25060019695505050505050565b6001600160a01b0381166000908152600860209081526040808320805482518185028101850190935280835260609492939192909184015b82821015610a8e5760008481526020908190206040805161016081018252600b86029092018054835260018101546001600160a01b03169383019390935260028301805492939291840191610874906123d3565b80601f01602080910402602001604051908101604052809291908181526020018280546108a0906123d3565b80156108ed5780601f106108c2576101008083540402835291602001916108ed565b820191906000526020600020905b8154815290600101906020018083116108d057829003601f168201915b50505050508152602001600382018054610906906123d3565b80601f0160208091040260200160405190810160405280929190818152602001828054610932906123d3565b801561097f5780601f106109545761010080835404028352916020019161097f565b820191906000526020600020905b81548152906001019060200180831161096257829003601f168201915b50505050508152602001600482018054610998906123d3565b80601f01602080910402602001604051908101604052809291908181526020018280546109c4906123d3565b8015610a115780601f106109e657610100808354040283529160200191610a11565b820191906000526020600020905b8154815290600101906020018083116109f457829003601f168201915b505050918352505060058201546020820152600682015460408201526007820154606082015260088201546080820152600982015460a0820152600a82015460c09091019060ff166004811115610a6a57610a6a6120f6565b6004811115610a7b57610a7b6120f6565b8152505081526020019060010190610820565b505050509050919050565b6000546001600160a01b03163314610ae95760405162461bcd60e51b81526020600482015260136024820152724f776e6572207265736572766564206f6e6c7960681b60448201526064016103c1565b600155565b60008060078381548110610b0457610b0461240e565b60009182526020909120600a600b90920201015460ff166004811115610b2c57610b2c6120f6565b14610b745760405162461bcd60e51b8152602060048201526018602482015277141c9bda9958dd081b9bc81b1bdb99d95c881bdc195b995960421b60448201526064016103c1565b60078281548110610b8757610b8761240e565b60009182526020909120600b90910201600101546001600160a01b03163314610bc25760405162461bcd60e51b81526004016103c190612424565b600360078381548110610bd757610bd761240e565b60009182526020909120600a600b9092020101805460ff19166001836004811115610c0457610c046120f6565b0217905550610c1282611ae6565b60408051838152606060208201819052600f908201526e141493d29150d50811115311551151608a1b60808201524281830152905133916000805160206124aa833981519152919081900360a00190a2506001919050565b600060078681548110610c7f57610c7f61240e565b60009182526020909120600b90910201600101546001600160a01b03163314610cba5760405162461bcd60e51b81526004016103c190612424565b6000855111610d035760405162461bcd60e51b81526020600482015260156024820152745469746c652063616e6e6f7420626520656d70747960581b60448201526064016103c1565b6000845111610d545760405162461bcd60e51b815260206004820152601b60248201527f4465736372697074696f6e2063616e6e6f7420626520656d707479000000000060448201526064016103c1565b6000835111610da05760405162461bcd60e51b8152602060048201526018602482015277496d61676555524c2063616e6e6f7420626520656d70747960401b60448201526064016103c1565b8460078781548110610db457610db461240e565b90600052602060002090600b02016002019080519060200190610dd8929190611ea3565b508360078781548110610ded57610ded61240e565b90600052602060002090600b02016003019080519060200190610e11929190611ea3565b508260078781548110610e2657610e2661240e565b90600052602060002090600b02016004019080519060200190610e4a929190611ea3565b508160078781548110610e5f57610e5f61240e565b90600052602060002090600b020160080181905550336001600160a01b03166000805160206124aa8339815191528742604051610ecd929190918252606060208301819052600f908301526e141493d29150d50815541110551151608a1b6080830152604082015260a00190565b60405180910390a250600195945050505050565b6000803411610f325760405162461bcd60e51b815260206004820152601f60248201527f4574686572206d7573742062652067726561746572207468616e207a65726f0060448201526064016103c1565b6000828152600a602052604090205460ff16610f845760405162461bcd60e51b8152602060048201526011602482015270141c9bda9958dd081b9bdd08199bdd5b99607a1b60448201526064016103c1565b600060078381548110610f9957610f9961240e565b60009182526020909120600a600b90920201015460ff166004811115610fc157610fc16120f6565b146110095760405162461bcd60e51b8152602060048201526018602482015277141c9bda9958dd081b9bc81b1bdb99d95c881bdc195b995960421b60448201526064016103c1565b60016004600101600082825461101f91906123a0565b9091555050600680543491906000906110399084906123a0565b9250508190555034600783815481106110545761105461240e565b90600052602060002090600b0201600601600082825461107491906123a0565b925050819055506001600783815481106110905761109061240e565b90600052602060002090600b020160090160008282546110b091906123a0565b9091555050600082815260096020908152604080832081516080808201845233808352348387019081524284870181815260608087018b8152885460018082018b55998d529b8b902097516004909c0290970180546001600160a01b0319166001600160a01b03909c169b909b178b559251968a01969096559451600289015592516003909701805460ff1916971515979097179096558351888152948501829052600e918501919091526d141493d29150d508109050d2d15160921b90840152908201526000805160206124aa8339815191529060a00160405180910390a2600782815481106111a3576111a361240e565b90600052602060002090600b020160050154600783815481106111c8576111c861240e565b90600052602060002090600b02016006015410611273576001600783815481106111f4576111f461240e565b60009182526020909120600a600b9092020101805460ff19166001836004811115611221576112216120f6565b0217905550600782815481106112395761123961240e565b90600052602060002090600b0201600601546003600082825461125c91906123a0565b9091555061126b905082611c54565b506001919050565b600782815481106112865761128661240e565b90600052602060002090600b020160080154421061126b576002600783815481106112b3576112b361240e565b60009182526020909120600a600b9092020101805460ff191660018360048111156112e0576112e06120f6565b021790555061126b82611ae6565b60006002600783815481106113055761130561240e565b60009182526020909120600a600b90920201015460ff16600481111561132d5761132d6120f6565b141580611375575060036007838154811061134a5761134a61240e565b60009182526020909120600a600b90920201015460ff166004811115611372576113726120f6565b14155b6113d05760405162461bcd60e51b815260206004820152602660248201527f50726f6a656374206e6f74206d61726b656420617320726576657274206f722060448201526564656c65746560d01b60648201526084016103c1565b6002600783815481106112b3576112b361240e565b60006001600783815481106113fc576113fc61240e565b60009182526020909120600a600b90920201015460ff166004811115611424576114246120f6565b146114685760405162461bcd60e51b8152602060048201526014602482015273141c9bda9958dd081b9bdd081054141493d5915160621b60448201526064016103c1565b6007828154811061147b5761147b61240e565b60009182526020909120600b90910201600101546001600160a01b03163314806114af57506000546001600160a01b031633145b6114cb5760405162461bcd60e51b81526004016103c190612424565b61126b82611c54565b606060096000838152602001908152602001600020805480602002602001604051908101604052809291908181526020016000905b82821015610a8e576000848152602090819020604080516080810182526004860290920180546001600160a01b03168352600180820154848601526002820154928401929092526003015460ff16151560608301529083529092019101611509565b60606007805480602002602001604051908101604052809291908181526020016000905b828210156117fd5760008481526020908190206040805161016081018252600b86029092018054835260018101546001600160a01b031693830193909352600283018054929392918401916115e3906123d3565b80601f016020809104026020016040519081016040528092919081815260200182805461160f906123d3565b801561165c5780601f106116315761010080835404028352916020019161165c565b820191906000526020600020905b81548152906001019060200180831161163f57829003601f168201915b50505050508152602001600382018054611675906123d3565b80601f01602080910402602001604051908101604052809291908181526020018280546116a1906123d3565b80156116ee5780601f106116c3576101008083540402835291602001916116ee565b820191906000526020600020905b8154815290600101906020018083116116d157829003601f168201915b50505050508152602001600482018054611707906123d3565b80601f0160208091040260200160405190810160405280929190818152602001828054611733906123d3565b80156117805780601f1061175557610100808354040283529160200191611780565b820191906000526020600020905b81548152906001019060200180831161176357829003601f168201915b505050918352505060058201546020820152600682015460408201526007820154606082015260088201546080820152600982015460a0820152600a82015460c09091019060ff1660048111156117d9576117d96120f6565b60048111156117ea576117ea6120f6565b815250508152602001906001019061158f565b50505050905090565b61180e611e30565b6000828152600a602052604090205460ff166118605760405162461bcd60e51b8152602060048201526011602482015270141c9bda9958dd081b9bdd08199bdd5b99607a1b60448201526064016103c1565b600782815481106118735761187361240e565b90600052602060002090600b020160405180610160016040529081600082015481526020016001820160009054906101000a90046001600160a01b03166001600160a01b03166001600160a01b031681526020016002820180546118d6906123d3565b80601f0160208091040260200160405190810160405280929190818152602001828054611902906123d3565b801561194f5780601f106119245761010080835404028352916020019161194f565b820191906000526020600020905b81548152906001019060200180831161193257829003601f168201915b50505050508152602001600382018054611968906123d3565b80601f0160208091040260200160405190810160405280929190818152602001828054611994906123d3565b80156119e15780601f106119b6576101008083540402835291602001916119e1565b820191906000526020600020905b8154815290600101906020018083116119c457829003601f168201915b505050505081526020016004820180546119fa906123d3565b80601f0160208091040260200160405190810160405280929190818152602001828054611a26906123d3565b8015611a735780601f10611a4857610100808354040283529160200191611a73565b820191906000526020600020905b815481529060010190602001808311611a5657829003601f168201915b505050918352505060058201546020820152600682015460408201526007820154606082015260088201546080820152600982015460a0820152600a82015460c09091019060ff166004811115611acc57611acc6120f6565b6004811115611add57611add6120f6565b90525092915050565b60005b600082815260096020526040902054811015611c50576000828152600960205260408120805483908110611b1f57611b1f61240e565b6000918252602080832060049092029091015485835260099091526040822080546001600160a01b0390921693509084908110611b5e57611b5e61240e565b90600052602060002090600402016001015490506001600960008681526020019081526020016000208481548110611b9857611b9861240e565b906000526020600020906004020160030160006101000a81548160ff02191690831515021790555042600960008681526020019081526020016000208481548110611be557611be561240e565b906000526020600020906004020160020181905550611c048282611dcb565b600160046001016000828254611c1a9190612451565b909155505060068054829190600090611c34908490612451565b9250508190555050508080611c48906123b8565b915050611ae9565b5050565b600060078281548110611c6957611c6961240e565b90600052602060002090600b02016006015490506000606460015483611c8f9190612468565b611c999190612487565b9050600460078481548110611cb057611cb061240e565b60009182526020909120600a600b9092020101805460ff19166001836004811115611cdd57611cdd6120f6565b0217905550611d2460078481548110611cf857611cf861240e565b600091825260209091206001600b9092020101546001600160a01b0316611d1f8385612451565b611dcb565b600054611d3a906001600160a01b031682611dcb565b60078381548110611d4d57611d4d61240e565b90600052602060002090600b02016006015460036000828254611d709190612451565b9091555050604080518481526060602082018190526010908201526f141493d29150d508141052510813d55560821b60808201524281830152905133916000805160206124aa833981519152919081900360a00190a2505050565b6000826001600160a01b03168260405160006040518083038185875af1925050503d8060008114611e18576040519150601f19603f3d011682016040523d82523d6000602084013e611e1d565b606091505b5050905080611e2b57600080fd5b505050565b6040518061016001604052806000815260200160006001600160a01b03168152602001606081526020016060815260200160608152602001600081526020016000815260200160008152602001600081526020016000815260200160006004811115611e9e57611e9e6120f6565b905290565b828054611eaf906123d3565b90600052602060002090601f016020900481019282611ed15760008555611f17565b82601f10611eea57805160ff1916838001178555611f17565b82800160010185558215611f17579182015b82811115611f17578251825591602001919060010190611efc565b50611f23929150611f27565b5090565b5b80821115611f235760008155600101611f28565b634e487b7160e01b600052604160045260246000fd5b600082601f830112611f6357600080fd5b813567ffffffffffffffff80821115611f7e57611f7e611f3c565b604051601f8301601f19908116603f01168101908282118183101715611fa657611fa6611f3c565b81604052838152866020858801011115611fbf57600080fd5b836020870160208301376000602085830101528094505050505092915050565b600080600080600060a08688031215611ff757600080fd5b853567ffffffffffffffff8082111561200f57600080fd5b61201b89838a01611f52565b9650602088013591508082111561203157600080fd5b61203d89838a01611f52565b9550604088013591508082111561205357600080fd5b5061206088828901611f52565b9598949750949560608101359550608001359392505050565b60006020828403121561208b57600080fd5b81356001600160a01b03811681146120a257600080fd5b9392505050565b6000815180845260005b818110156120cf576020818501810151868301820152016120b3565b818111156120e1576000602083870101525b50601f01601f19169290920160200192915050565b634e487b7160e01b600052602160045260246000fd5b6005811061212a57634e487b7160e01b600052602160045260246000fd5b9052565b600061016082518452602083015161215160208601826001600160a01b03169052565b506040830151816040860152612169828601826120a9565b9150506060830151848203606086015261218382826120a9565b9150506080830151848203608086015261219d82826120a9565b91505060a083015160a085015260c083015160c085015260e083015160e0850152610100808401518186015250610120808401518186015250610140808401516121e98287018261210c565b5090949350505050565b6000602080830181845280855180835260408601915060408160051b870101925083870160005b8281101561224857603f1988860301845261223685835161212e565b9450928501929085019060010161221a565b5092979650505050505050565b60006020828403121561226757600080fd5b5035919050565b600080600080600060a0868803121561228657600080fd5b85359450602086013567ffffffffffffffff808211156122a557600080fd5b6122b189838a01611f52565b955060408801359150808211156122c757600080fd5b6122d389838a01611f52565b945060608801359150808211156122e957600080fd5b506122f688828901611f52565b95989497509295608001359392505050565b602080825282518282018190526000919060409081850190868401855b8281101561236a57815180516001600160a01b031685528681015187860152858101518686015260609081015115159085015260809093019290850190600101612325565b5091979650505050505050565b6020815260006120a2602083018461212e565b634e487b7160e01b600052601160045260246000fd5b600082198211156123b3576123b361238a565b500190565b60006000198214156123cc576123cc61238a565b5060010190565b600181811c908216806123e757607f821691505b6020821081141561240857634e487b7160e01b600052602260045260246000fd5b50919050565b634e487b7160e01b600052603260045260246000fd5b602080825260139082015272556e617574686f72697a656420456e7469747960681b604082015260600190565b6000828210156124635761246361238a565b500390565b60008160001904831182151516156124825761248261238a565b500290565b6000826124a457634e487b7160e01b600052601260045260246000fd5b50049056feaee8e5d3bbb2f71a951b5632cee20f7ac487b9f8ab4f66a236f7694b13af7c6aa26469706673582212207d04407b3a482d5f6c855767aea27a5e5990202cf3f31217f17ac4abcc2a733d64736f6c634300080b0033",
  "linkReferences": {},
  "deployedLinkReferences": {}
}