{
  "_format": "hh-sol-artifact-1",
  "contractName": "Versura",
  "sourceName": "src/contracts/Versura.sol",
  "abi": [
    {
      "inputs": [],
      "stateMutability": "nonpayable",
      "type": "constructor"
    },
    {
      "anonymous": false,
      "inputs": [
        {
          "indexed": false,
          "internalType": "uint256",
          "name": "id",
          "type": "uint256"
        },
        {
          "indexed": false,
          "internalType": "string",
          "name": "actionType",
          "type": "string"
        },
        {
          "indexed": true,
          "internalType": "address",
          "name": "executor",
          "type": "address"
        },
        {
          "indexed": false,
          "internalType": "uint256",
          "name": "timestamp",
          "type": "uint256"
        }
      ],
      "name": "Action",
      "type": "event"
    },
    {
      "inputs": [
        {
          "internalType": "uint256",
          "name": "id",
          "type": "uint256"
        }
      ],
      "name": "backProject",
      "outputs": [
        {
          "internalType": "bool",
          "name": "",
          "type": "bool"
        }
      ],
      "stateMutability": "payable",
      "type": "function"
    },
    {
      "inputs": [],
      "name": "balance",
      "outputs": [
        {
          "internalType": "uint256",
          "name": "",
          "type": "uint256"
        }
      ],
      "stateMutability": "view",
      "type": "function"
    },
    {
      "inputs": [
        {
          "internalType": "uint256",
          "name": "_taxPct",
          "type": "uint256"
        }
      ],
      "name": "changeTax",
      "outputs": [],
      "stateMutability": "nonpayable",
      "type": "function"
    },
    {
      "inputs": [
        {
          "internalType": "string",
          "name": "title",
          "type": "string"
        },
        {
          "internalType": "string",
          "name": "description",
          "type": "string"
        },
        {
          "internalType": "string",
          "name": "imageURL",
          "type": "string"
        },
        {
          "internalType": "uint256",
          "name": "cost",
          "type": "uint256"
        },
        {
          "internalType": "uint256",
          "name": "expiresAt",
          "type": "uint256"
        }
      ],
      "name": "createProject",
      "outputs": [
        {
          "internalType": "bool",
          "name": "",
          "type": "bool"
        }
      ],
      "stateMutability": "nonpayable",
      "type": "function"
    },
    {
      "inputs": [
        {
          "internalType": "uint256",
          "name": "id",
          "type": "uint256"
        }
      ],
      "name": "deleteProject",
      "outputs": [
        {
          "internalType": "bool",
          "name": "",
          "type": "bool"
        }
      ],
      "stateMutability": "nonpayable",
      "type": "function"
    },
    {
      "inputs": [
        {
          "internalType": "uint256",
          "name": "id",
          "type": "uint256"
        }
      ],
      "name": "getBackers",
      "outputs": [
        {
          "components": [
            {
              "internalType": "address",
              "name": "owner",
              "type": "address"
            },
            {
              "internalType": "uint256",
              "name": "contribution",
              "type": "uint256"
            },
            {
              "internalType": "uint256",
              "name": "timestamp",
              "type": "uint256"
            },
            {
              "internalType": "bool",
              "name": "refunded",
              "type": "bool"
            }
          ],
          "internalType": "struct Versura.backerStruct[]",
          "name": "",
          "type": "tuple[]"
        }
      ],
      "stateMutability": "view",
      "type": "function"
    },
    {
      "inputs": [
        {
          "internalType": "uint256",
          "name": "id",
          "type": "uint256"
        }
      ],
      "name": "getProject",
      "outputs": [
        {
          "components": [
            {
              "internalType": "uint256",
              "name": "id",
              "type": "uint256"
            },
            {
              "internalType": "address",
              "name": "owner",
              "type": "address"
            },
            {
              "internalType": "string",
              "name": "title",
              "type": "string"
            },
            {
              "internalType": "string",
              "name": "description",
              "type": "string"
            },
            {
              "internalType": "string",
              "name": "imageURL",
              "type": "string"
            },
            {
              "internalType": "uint256",
              "name": "cost",
              "type": "uint256"
            },
            {
              "internalType": "uint256",
              "name": "raised",
              "type": "uint256"
            },
            {
              "internalType": "uint256",
              "name": "timestamp",
              "type": "uint256"
            },
            {
              "internalType": "uint256",
              "name": "expiresAt",
              "type": "uint256"
            },
            {
              "internalType": "uint256",
              "name": "backers",
              "type": "uint256"
            },
            {
              "internalType": "enum Versura.statusEnum",
              "name": "status",
              "type": "uint8"
            }
          ],
          "internalType": "struct Versura.projectStruct",
          "name": "",
          "type": "tuple"
        }
      ],
      "stateMutability": "view",
      "type": "function"
    },
    {
      "inputs": [],
      "name": "getProjects",
      "outputs": [
        {
          "components": [
            {
              "internalType": "uint256",
              "name": "id",
              "type": "uint256"
            },
            {
              "internalType": "address",
              "name": "owner",
              "type": "address"
            },
            {
              "internalType": "string",
              "name": "title",
              "type": "string"
            },
            {
              "internalType": "string",
              "name": "description",
              "type": "string"
            },
            {
              "internalType": "string",
              "name": "imageURL",
              "type": "string"
            },
            {
              "internalType": "uint256",
              "name": "cost",
              "type": "uint256"
            },
            {
              "internalType": "uint256",
              "name": "raised",
              "type": "uint256"
            },
            {
              "internalType": "uint256",
              "name": "timestamp",
              "type": "uint256"
            },
            {
              "internalType": "uint256",
              "name": "expiresAt",
              "type": "uint256"
            },
            {
              "internalType": "uint256",
              "name": "backers",
              "type": "uint256"
            },
            {
              "internalType": "enum Versura.statusEnum",
              "name": "status",
              "type": "uint8"
            }
          ],
          "internalType": "struct Versura.projectStruct[]",
          "name": "",
          "type": "tuple[]"
        }
      ],
      "stateMutability": "view",
      "type": "function"
    },
    {
      "inputs": [],
      "name": "owner",
      "outputs": [
        {
          "internalType": "address",
          "name": "",
          "type": "address"
        }
      ],
      "stateMutability": "view",
      "type": "function"
    },
    {
      "inputs": [
        {
          "internalType": "uint256",
          "name": "id",
          "type": "uint256"
        }
      ],
      "name": "payOutProject",
      "outputs": [
        {
          "internalType": "bool",
          "name": "",
          "type": "bool"
        }
      ],
      "stateMutability": "nonpayable",
      "type": "function"
    },
    {
      "inputs": [],
      "name": "projectCount",
      "outputs": [
        {
          "internalType": "uint256",
          "name": "",
          "type": "uint256"
        }
      ],
      "stateMutability": "view",
      "type": "function"
    },
    {
      "inputs": [
        {
          "internalType": "uint256",
          "name": "",
          "type": "uint256"
        }
      ],
      "name": "projectExist",
      "outputs": [
        {
          "internalType": "bool",
          "name": "",
          "type": "bool"
        }
      ],
      "stateMutability": "view",
      "type": "function"
    },
    {
      "inputs": [],
      "name": "projectTax",
      "outputs": [
        {
          "internalType": "uint256",
          "name": "",
          "type": "uint256"
        }
      ],
      "stateMutability": "view",
      "type": "function"
    },
    {
      "inputs": [
        {
          "internalType": "uint256",
          "name": "id",
          "type": "uint256"
        }
      ],
      "name": "requestRefund",
      "outputs": [
        {
          "internalType": "bool",
          "name": "",
          "type": "bool"
        }
      ],
      "stateMutability": "nonpayable",
      "type": "function"
    },
    {
      "inputs": [],
      "name": "stats",
      "outputs": [
        {
          "internalType": "uint256",
          "name": "totalProjects",
          "type": "uint256"
        },
        {
          "internalType": "uint256",
          "name": "totalBacking",
          "type": "uint256"
        },
        {
          "internalType": "uint256",
          "name": "totalDonations",
          "type": "uint256"
        }
      ],
      "stateMutability": "view",
      "type": "function"
    },
    {
      "inputs": [
        {
          "internalType": "uint256",
          "name": "id",
          "type": "uint256"
        },
        {
          "internalType": "string",
          "name": "title",
          "type": "string"
        },
        {
          "internalType": "string",
          "name": "description",
          "type": "string"
        },
        {
          "internalType": "string",
          "name": "imageURL",
          "type": "string"
        },
        {
          "internalType": "uint256",
          "name": "expiresAt",
          "type": "uint256"
        }
      ],
      "name": "updateProject",
      "outputs": [
        {
          "internalType": "bool",
          "name": "",
          "type": "bool"
        }
      ],
      "stateMutability": "nonpayable",
      "type": "function"
    }
  ],
  "bytecode": "0x608060405234801561001057600080fd5b50600080546001600160a01b03191633179055612205806100326000396000f3fe6080604052600436106100f35760003560e01c8063a4b2409e1161008a578063d24cd3ec11610059578063d24cd3ec146102b1578063d80528ae146102c7578063dcc6012814610301578063f0f3f2c81461032357600080fd5b8063a4b2409e1461022e578063b531dcba1461024e578063b69ef8a81461026e578063c9168b721461028457600080fd5b80638593054b116100c65780638593054b146101935780638da5cb5b146101c35780639a3fa8c7146101fb5780639f39a1941461021b57600080fd5b8063056c29ee146100f857806336fbad261461012d5780633e45c8af146101515780634cd0cb2814610173575b600080fd5b34801561010457600080fd5b50610118610113366004611d0e565b610350565b60405190151581526020015b60405180910390f35b34801561013957600080fd5b5061014360025481565b604051908152602001610124565b34801561015d57600080fd5b5061017161016c366004611da8565b6107bd565b005b34801561017f57600080fd5b5061011861018e366004611da8565b610812565b34801561019f57600080fd5b506101186101ae366004611da8565b600a6020526000908152604090205460ff1681565b3480156101cf57600080fd5b506000546101e3906001600160a01b031681565b6040516001600160a01b039091168152602001610124565b34801561020757600080fd5b50610118610216366004611dc1565b61098e565b610118610229366004611da8565b610c05565b34801561023a57600080fd5b50610118610249366004611da8565b611012565b34801561025a57600080fd5b50610118610269366004611da8565b611109565b34801561027a57600080fd5b5061014360035481565b34801561029057600080fd5b506102a461029f366004611da8565b6111f8565b6040516101249190611e5b565b3480156102bd57600080fd5b5061014360015481565b3480156102d357600080fd5b506004546005546006546102e692919083565b60408051938452602084019290925290820152606001610124565b34801561030d57600080fd5b5061031661129a565b6040516101249190612014565b34801561032f57600080fd5b5061034361033e366004611da8565b611535565b6040516101249190612076565b60008086511161039f5760405162461bcd60e51b81526020600482015260156024820152745469746c652063616e6e6f7420626520656d70747960581b60448201526064015b60405180910390fd5b60008551116103f05760405162461bcd60e51b815260206004820152601b60248201527f4465736372697074696f6e2063616e6e6f7420626520656d70747900000000006044820152606401610396565b600084511161043c5760405162461bcd60e51b8152602060048201526018602482015277496d61676555524c2063616e6e6f7420626520656d70747960401b6044820152606401610396565b600083116104825760405162461bcd60e51b8152602060048201526013602482015272436f73742063616e6e6f74206265207a65726f60681b6044820152606401610396565b61048a611b5f565b600254815233602080830191825260408301898152606084018990526080840188905260a084018790524260e085015261010084018690526007805460018101825560009190915284517fa66cc928b5edb82af9bd49922954155ab7b0942694bea4ce44661d9a8736c688600b90920291820190815593517fa66cc928b5edb82af9bd49922954155ab7b0942694bea4ce44661d9a8736c689820180546001600160a01b0319166001600160a01b0390921691909117905590518051859493610577937fa66cc928b5edb82af9bd49922954155ab7b0942694bea4ce44661d9a8736c68a01920190611bd2565b5060608201518051610593916003840191602090910190611bd2565b50608082015180516105af916004840191602090910190611bd2565b5060a0820151600582015560c0820151600682015560e0820151600782015561010082015160088201556101208201516009820155610140820151600a8201805460ff1916600183600481111561060857610608611f17565b021790555050600280546000908152600a602090815260408083208054600160ff1990911681179091553384526008835281842080548083018255908552938390208751600b909502019384558683015190840180546001600160a01b0319166001600160a01b039092169190911790558501518051869550929361069593908501929190910190611bd2565b50606082015180516106b1916003840191602090910190611bd2565b50608082015180516106cd916004840191602090910190611bd2565b5060a0820151600582015560c0820151600682015560e0820151600782015561010082015160088201556101208201516009820155610140820151600a8201805460ff1916600183600481111561072657610726611f17565b0217905550505060016004600001600082825461074391906120a6565b909155505060028054906000610758836120be565b909155505060025460408051918252606060208301819052600f908301526e141493d29150d50810d49150551151608a1b6080830152429082015233906000805160206121b08339815191529060a00160405180910390a25060019695505050505050565b6000546001600160a01b0316331461080d5760405162461bcd60e51b81526020600482015260136024820152724f776e6572207265736572766564206f6e6c7960681b6044820152606401610396565b600155565b60008060078381548110610828576108286120d9565b60009182526020909120600a600b90920201015460ff16600481111561085057610850611f17565b146108985760405162461bcd60e51b8152602060048201526018602482015277141c9bda9958dd081b9bc81b1bdb99d95c881bdc195b995960421b6044820152606401610396565b600782815481106108ab576108ab6120d9565b60009182526020909120600b90910201600101546001600160a01b031633146108e65760405162461bcd60e51b8152600401610396906120ef565b6003600783815481106108fb576108fb6120d9565b60009182526020909120600a600b9092020101805460ff1916600183600481111561092857610928611f17565b021790555061093682611815565b60408051838152606060208201819052600f908201526e141493d29150d50811115311551151608a1b60808201524281830152905133916000805160206121b0833981519152919081900360a00190a2506001919050565b6000600786815481106109a3576109a36120d9565b60009182526020909120600b90910201600101546001600160a01b031633146109de5760405162461bcd60e51b8152600401610396906120ef565b6000855111610a275760405162461bcd60e51b81526020600482015260156024820152745469746c652063616e6e6f7420626520656d70747960581b6044820152606401610396565b6000845111610a785760405162461bcd60e51b815260206004820152601b60248201527f4465736372697074696f6e2063616e6e6f7420626520656d70747900000000006044820152606401610396565b6000835111610ac45760405162461bcd60e51b8152602060048201526018602482015277496d61676555524c2063616e6e6f7420626520656d70747960401b6044820152606401610396565b8460078781548110610ad857610ad86120d9565b90600052602060002090600b02016002019080519060200190610afc929190611bd2565b508360078781548110610b1157610b116120d9565b90600052602060002090600b02016003019080519060200190610b35929190611bd2565b508260078781548110610b4a57610b4a6120d9565b90600052602060002090600b02016004019080519060200190610b6e929190611bd2565b508160078781548110610b8357610b836120d9565b90600052602060002090600b020160080181905550336001600160a01b03166000805160206121b08339815191528742604051610bf1929190918252606060208301819052600f908301526e141493d29150d50815541110551151608a1b6080830152604082015260a00190565b60405180910390a250600195945050505050565b6000803411610c565760405162461bcd60e51b815260206004820152601f60248201527f4574686572206d7573742062652067726561746572207468616e207a65726f006044820152606401610396565b6000828152600a602052604090205460ff16610ca85760405162461bcd60e51b8152602060048201526011602482015270141c9bda9958dd081b9bdd08199bdd5b99607a1b6044820152606401610396565b600060078381548110610cbd57610cbd6120d9565b60009182526020909120600a600b90920201015460ff166004811115610ce557610ce5611f17565b14610d2d5760405162461bcd60e51b8152602060048201526018602482015277141c9bda9958dd081b9bc81b1bdb99d95c881bdc195b995960421b6044820152606401610396565b600160046001016000828254610d4391906120a6565b909155505060068054349190600090610d5d9084906120a6565b925050819055503460078381548110610d7857610d786120d9565b90600052602060002090600b02016006016000828254610d9891906120a6565b92505081905550600160078381548110610db457610db46120d9565b90600052602060002090600b02016009016000828254610dd491906120a6565b9091555050600082815260096020908152604080832081516080808201845233808352348387019081524284870181815260608087018b8152885460018082018b55998d529b8b902097516004909c0290970180546001600160a01b0319166001600160a01b03909c169b909b178b559251968a01969096559451600289015592516003909701805460ff1916971515979097179096558351888152948501829052600e918501919091526d141493d29150d508109050d2d15160921b90840152908201526000805160206121b08339815191529060a00160405180910390a260078281548110610ec757610ec76120d9565b90600052602060002090600b02016005015460078381548110610eec57610eec6120d9565b90600052602060002090600b02016006015410610f9757600160078381548110610f1857610f186120d9565b60009182526020909120600a600b9092020101805460ff19166001836004811115610f4557610f45611f17565b021790555060078281548110610f5d57610f5d6120d9565b90600052602060002090600b02016006015460036000828254610f8091906120a6565b90915550610f8f905082611983565b506001919050565b60078281548110610faa57610faa6120d9565b90600052602060002090600b0201600801544210610f8f57600260078381548110610fd757610fd76120d9565b60009182526020909120600a600b9092020101805460ff1916600183600481111561100457611004611f17565b0217905550610f8f82611815565b6000600260078381548110611029576110296120d9565b60009182526020909120600a600b90920201015460ff16600481111561105157611051611f17565b141580611099575060036007838154811061106e5761106e6120d9565b60009182526020909120600a600b90920201015460ff16600481111561109657611096611f17565b14155b6110f45760405162461bcd60e51b815260206004820152602660248201527f50726f6a656374206e6f74206d61726b656420617320726576657274206f722060448201526564656c65746560d01b6064820152608401610396565b600260078381548110610fd757610fd76120d9565b6000600160078381548110611120576111206120d9565b60009182526020909120600a600b90920201015460ff16600481111561114857611148611f17565b1461118c5760405162461bcd60e51b8152602060048201526014602482015273141c9bda9958dd081b9bdd081054141493d5915160621b6044820152606401610396565b6007828154811061119f5761119f6120d9565b60009182526020909120600b90910201600101546001600160a01b03163314806111d357506000546001600160a01b031633145b6111ef5760405162461bcd60e51b8152600401610396906120ef565b610f8f82611983565b606060096000838152602001908152602001600020805480602002602001604051908101604052809291908181526020016000905b8282101561128f576000848152602090819020604080516080810182526004860290920180546001600160a01b03168352600180820154848601526002820154928401929092526003015460ff1615156060830152908352909201910161122d565b505050509050919050565b60606007805480602002602001604051908101604052809291908181526020016000905b8282101561152c5760008481526020908190206040805161016081018252600b86029092018054835260018101546001600160a01b031693830193909352600283018054929392918401916113129061211c565b80601f016020809104026020016040519081016040528092919081815260200182805461133e9061211c565b801561138b5780601f106113605761010080835404028352916020019161138b565b820191906000526020600020905b81548152906001019060200180831161136e57829003601f168201915b505050505081526020016003820180546113a49061211c565b80601f01602080910402602001604051908101604052809291908181526020018280546113d09061211c565b801561141d5780601f106113f25761010080835404028352916020019161141d565b820191906000526020600020905b81548152906001019060200180831161140057829003601f168201915b505050505081526020016004820180546114369061211c565b80601f01602080910402602001604051908101604052809291908181526020018280546114629061211c565b80156114af5780601f10611484576101008083540402835291602001916114af565b820191906000526020600020905b81548152906001019060200180831161149257829003601f168201915b505050918352505060058201546020820152600682015460408201526007820154606082015260088201546080820152600982015460a0820152600a82015460c09091019060ff16600481111561150857611508611f17565b600481111561151957611519611f17565b81525050815260200190600101906112be565b50505050905090565b61153d611b5f565b6000828152600a602052604090205460ff1661158f5760405162461bcd60e51b8152602060048201526011602482015270141c9bda9958dd081b9bdd08199bdd5b99607a1b6044820152606401610396565b600782815481106115a2576115a26120d9565b90600052602060002090600b020160405180610160016040529081600082015481526020016001820160009054906101000a90046001600160a01b03166001600160a01b03166001600160a01b031681526020016002820180546116059061211c565b80601f01602080910402602001604051908101604052809291908181526020018280546116319061211c565b801561167e5780601f106116535761010080835404028352916020019161167e565b820191906000526020600020905b81548152906001019060200180831161166157829003601f168201915b505050505081526020016003820180546116979061211c565b80601f01602080910402602001604051908101604052809291908181526020018280546116c39061211c565b80156117105780601f106116e557610100808354040283529160200191611710565b820191906000526020600020905b8154815290600101906020018083116116f357829003601f168201915b505050505081526020016004820180546117299061211c565b80601f01602080910402602001604051908101604052809291908181526020018280546117559061211c565b80156117a25780601f10611777576101008083540402835291602001916117a2565b820191906000526020600020905b81548152906001019060200180831161178557829003601f168201915b505050918352505060058201546020820152600682015460408201526007820154606082015260088201546080820152600982015460a0820152600a82015460c09091019060ff1660048111156117fb576117fb611f17565b600481111561180c5761180c611f17565b90525092915050565b60005b60008281526009602052604090205481101561197f57600082815260096020526040812080548390811061184e5761184e6120d9565b6000918252602080832060049092029091015485835260099091526040822080546001600160a01b039092169350908490811061188d5761188d6120d9565b906000526020600020906004020160010154905060016009600086815260200190815260200160002084815481106118c7576118c76120d9565b906000526020600020906004020160030160006101000a81548160ff02191690831515021790555042600960008681526020019081526020016000208481548110611914576119146120d9565b9060005260206000209060040201600201819055506119338282611afa565b6001600460010160008282546119499190612157565b909155505060068054829190600090611963908490612157565b9250508190555050508080611977906120be565b915050611818565b5050565b600060078281548110611998576119986120d9565b90600052602060002090600b020160060154905060006064600154836119be919061216e565b6119c8919061218d565b90506004600784815481106119df576119df6120d9565b60009182526020909120600a600b9092020101805460ff19166001836004811115611a0c57611a0c611f17565b0217905550611a5360078481548110611a2757611a276120d9565b600091825260209091206001600b9092020101546001600160a01b0316611a4e8385612157565b611afa565b600054611a69906001600160a01b031682611afa565b60078381548110611a7c57611a7c6120d9565b90600052602060002090600b02016006015460036000828254611a9f9190612157565b9091555050604080518481526060602082018190526010908201526f141493d29150d508141052510813d55560821b60808201524281830152905133916000805160206121b0833981519152919081900360a00190a2505050565b6000826001600160a01b03168260405160006040518083038185875af1925050503d8060008114611b47576040519150601f19603f3d011682016040523d82523d6000602084013e611b4c565b606091505b5050905080611b5a57600080fd5b505050565b6040518061016001604052806000815260200160006001600160a01b03168152602001606081526020016060815260200160608152602001600081526020016000815260200160008152602001600081526020016000815260200160006004811115611bcd57611bcd611f17565b905290565b828054611bde9061211c565b90600052602060002090601f016020900481019282611c005760008555611c46565b82601f10611c1957805160ff1916838001178555611c46565b82800160010185558215611c46579182015b82811115611c46578251825591602001919060010190611c2b565b50611c52929150611c56565b5090565b5b80821115611c525760008155600101611c57565b634e487b7160e01b600052604160045260246000fd5b600082601f830112611c9257600080fd5b813567ffffffffffffffff80821115611cad57611cad611c6b565b604051601f8301601f19908116603f01168101908282118183101715611cd557611cd5611c6b565b81604052838152866020858801011115611cee57600080fd5b836020870160208301376000602085830101528094505050505092915050565b600080600080600060a08688031215611d2657600080fd5b853567ffffffffffffffff80821115611d3e57600080fd5b611d4a89838a01611c81565b96506020880135915080821115611d6057600080fd5b611d6c89838a01611c81565b95506040880135915080821115611d8257600080fd5b50611d8f88828901611c81565b9598949750949560608101359550608001359392505050565b600060208284031215611dba57600080fd5b5035919050565b600080600080600060a08688031215611dd957600080fd5b85359450602086013567ffffffffffffffff80821115611df857600080fd5b611e0489838a01611c81565b95506040880135915080821115611e1a57600080fd5b611e2689838a01611c81565b94506060880135915080821115611e3c57600080fd5b50611e4988828901611c81565b95989497509295608001359392505050565b602080825282518282018190526000919060409081850190868401855b82811015611ebd57815180516001600160a01b031685528681015187860152858101518686015260609081015115159085015260809093019290850190600101611e78565b5091979650505050505050565b6000815180845260005b81811015611ef057602081850181015186830182015201611ed4565b81811115611f02576000602083870101525b50601f01601f19169290920160200192915050565b634e487b7160e01b600052602160045260246000fd5b60058110611f4b57634e487b7160e01b600052602160045260246000fd5b9052565b6000610160825184526020830151611f7260208601826001600160a01b03169052565b506040830151816040860152611f8a82860182611eca565b91505060608301518482036060860152611fa48282611eca565b91505060808301518482036080860152611fbe8282611eca565b91505060a083015160a085015260c083015160c085015260e083015160e08501526101008084015181860152506101208084015181860152506101408084015161200a82870182611f2d565b5090949350505050565b6000602080830181845280855180835260408601915060408160051b870101925083870160005b8281101561206957603f19888603018452612057858351611f4f565b9450928501929085019060010161203b565b5092979650505050505050565b6020815260006120896020830184611f4f565b9392505050565b634e487b7160e01b600052601160045260246000fd5b600082198211156120b9576120b9612090565b500190565b60006000198214156120d2576120d2612090565b5060010190565b634e487b7160e01b600052603260045260246000fd5b602080825260139082015272556e617574686f72697a656420456e7469747960681b604082015260600190565b600181811c9082168061213057607f821691505b6020821081141561215157634e487b7160e01b600052602260045260246000fd5b50919050565b60008282101561216957612169612090565b500390565b600081600019048311821515161561218857612188612090565b500290565b6000826121aa57634e487b7160e01b600052601260045260246000fd5b50049056feaee8e5d3bbb2f71a951b5632cee20f7ac487b9f8ab4f66a236f7694b13af7c6aa26469706673582212206170a963e4a0185d9ae759b493a14dd75def94ca0d703691ec60551b71d945cd64736f6c634300080b0033",
  "linkReferences": {},
  "deployedLinkReferences": {}
}